{
  "_format": "hh-sol-artifact-1",
  "contractName": "PartyVote",
  "sourceName": "contracts/PartyVote.sol",
  "abi": [
    {
      "inputs": [
        {
          "internalType": "string",
          "name": "name",
          "type": "string"
        },
        {
          "internalType": "address",
          "name": "tokenAddress",
          "type": "address"
        }
      ],
      "stateMutability": "nonpayable",
      "type": "constructor"
    },
    {
      "inputs": [
        {
          "internalType": "address",
          "name": "owner",
          "type": "address"
        }
      ],
      "name": "OwnableInvalidOwner",
      "type": "error"
    },
    {
      "inputs": [
        {
          "internalType": "address",
          "name": "account",
          "type": "address"
        }
      ],
      "name": "OwnableUnauthorizedAccount",
      "type": "error"
    },
    {
      "inputs": [],
      "name": "vote__doneVoting",
      "type": "error"
    },
    {
      "inputs": [],
      "name": "vote__noParty",
      "type": "error"
    },
    {
      "inputs": [],
      "name": "vote__noToken",
      "type": "error"
    },
    {
      "anonymous": false,
      "inputs": [
        {
          "indexed": true,
          "internalType": "address",
          "name": "previousOwner",
          "type": "address"
        },
        {
          "indexed": true,
          "internalType": "address",
          "name": "newOwner",
          "type": "address"
        }
      ],
      "name": "OwnershipTransferred",
      "type": "event"
    },
    {
      "inputs": [
        {
          "internalType": "string",
          "name": "name",
          "type": "string"
        }
      ],
      "name": "addParty",
      "outputs": [],
      "stateMutability": "nonpayable",
      "type": "function"
    },
    {
      "inputs": [],
      "name": "getParties",
      "outputs": [
        {
          "components": [
            {
              "internalType": "string",
              "name": "name",
              "type": "string"
            },
            {
              "internalType": "uint256",
              "name": "count",
              "type": "uint256"
            }
          ],
          "internalType": "struct PartyVote.Party[]",
          "name": "",
          "type": "tuple[]"
        }
      ],
      "stateMutability": "view",
      "type": "function"
    },
    {
      "inputs": [
        {
          "internalType": "address",
          "name": "voter",
          "type": "address"
        }
      ],
      "name": "getVotes",
      "outputs": [
        {
          "components": [
            {
              "components": [
                {
                  "internalType": "string",
                  "name": "name",
                  "type": "string"
                },
                {
                  "internalType": "uint256",
                  "name": "count",
                  "type": "uint256"
                }
              ],
              "internalType": "struct PartyVote.Party",
              "name": "party",
              "type": "tuple"
            },
            {
              "internalType": "bool",
              "name": "hasVoted",
              "type": "bool"
            },
            {
              "internalType": "uint256",
              "name": "time",
              "type": "uint256"
            }
          ],
          "internalType": "struct PartyVote.Votes",
          "name": "",
          "type": "tuple"
        }
      ],
      "stateMutability": "view",
      "type": "function"
    },
    {
      "inputs": [],
      "name": "owner",
      "outputs": [
        {
          "internalType": "address",
          "name": "",
          "type": "address"
        }
      ],
      "stateMutability": "view",
      "type": "function"
    },
    {
      "inputs": [],
      "name": "renounceOwnership",
      "outputs": [],
      "stateMutability": "nonpayable",
      "type": "function"
    },
    {
      "inputs": [],
      "name": "totalVoteUsed",
      "outputs": [
        {
          "internalType": "uint256",
          "name": "",
          "type": "uint256"
        }
      ],
      "stateMutability": "view",
      "type": "function"
    },
    {
      "inputs": [
        {
          "internalType": "address",
          "name": "newOwner",
          "type": "address"
        }
      ],
      "name": "transferOwnership",
      "outputs": [],
      "stateMutability": "nonpayable",
      "type": "function"
    },
    {
      "inputs": [
        {
          "internalType": "string",
          "name": "name",
          "type": "string"
        }
      ],
      "name": "vote",
      "outputs": [],
      "stateMutability": "nonpayable",
      "type": "function"
    }
  ],
  "bytecode": "0x60806040523480156200001157600080fd5b5060405162001c0738038062001c07833981810160405281019062000037919062000429565b33600073ffffffffffffffffffffffffffffffffffffffff168173ffffffffffffffffffffffffffffffffffffffff1603620000ad5760006040517f1e4fbdf7000000000000000000000000000000000000000000000000000000008152600401620000a49190620004a0565b60405180910390fd5b620000be816200016d60201b60201c565b5080600160006101000a81548173ffffffffffffffffffffffffffffffffffffffff021916908373ffffffffffffffffffffffffffffffffffffffff1602179055506004604051806040016040528084815260200160008152509080600181540180825580915050600190039060005260206000209060020201600090919091909150600082015181600001908162000158919062000708565b506020820151816001015550505050620007ef565b60008060009054906101000a900473ffffffffffffffffffffffffffffffffffffffff169050816000806101000a81548173ffffffffffffffffffffffffffffffffffffffff021916908373ffffffffffffffffffffffffffffffffffffffff1602179055508173ffffffffffffffffffffffffffffffffffffffff168173ffffffffffffffffffffffffffffffffffffffff167f8be0079c531659141344cd1fd0a4f28419497f9722a3daafe3b4186f6b6457e060405160405180910390a35050565b6000604051905090565b600080fd5b600080fd5b600080fd5b600080fd5b6000601f19601f8301169050919050565b7f4e487b7100000000000000000000000000000000000000000000000000000000600052604160045260246000fd5b6200029a826200024f565b810181811067ffffffffffffffff82111715620002bc57620002bb62000260565b5b80604052505050565b6000620002d162000231565b9050620002df82826200028f565b919050565b600067ffffffffffffffff82111562000302576200030162000260565b5b6200030d826200024f565b9050602081019050919050565b60005b838110156200033a5780820151818401526020810190506200031d565b60008484015250505050565b60006200035d6200035784620002e4565b620002c5565b9050828152602081018484840111156200037c576200037b6200024a565b5b620003898482856200031a565b509392505050565b600082601f830112620003a957620003a862000245565b5b8151620003bb84826020860162000346565b91505092915050565b600073ffffffffffffffffffffffffffffffffffffffff82169050919050565b6000620003f182620003c4565b9050919050565b6200040381620003e4565b81146200040f57600080fd5b50565b6000815190506200042381620003f8565b92915050565b600080604083850312156200044357620004426200023b565b5b600083015167ffffffffffffffff81111562000464576200046362000240565b5b620004728582860162000391565b9250506020620004858582860162000412565b9150509250929050565b6200049a81620003e4565b82525050565b6000602082019050620004b760008301846200048f565b92915050565b600081519050919050565b7f4e487b7100000000000000000000000000000000000000000000000000000000600052602260045260246000fd5b600060028204905060018216806200051057607f821691505b602082108103620005265762000525620004c8565b5b50919050565b60008190508160005260206000209050919050565b60006020601f8301049050919050565b600082821b905092915050565b600060088302620005907fffffffffffffffffffffffffffffffffffffffffffffffffffffffffffffffff8262000551565b6200059c868362000551565b95508019841693508086168417925050509392505050565b6000819050919050565b6000819050919050565b6000620005e9620005e3620005dd84620005b4565b620005be565b620005b4565b9050919050565b6000819050919050565b6200060583620005c8565b6200061d6200061482620005f0565b8484546200055e565b825550505050565b600090565b6200063462000625565b62000641818484620005fa565b505050565b5b8181101562000669576200065d6000826200062a565b60018101905062000647565b5050565b601f821115620006b85762000682816200052c565b6200068d8462000541565b810160208510156200069d578190505b620006b5620006ac8562000541565b83018262000646565b50505b505050565b600082821c905092915050565b6000620006dd60001984600802620006bd565b1980831691505092915050565b6000620006f88383620006ca565b9150826002028217905092915050565b6200071382620004bd565b67ffffffffffffffff8111156200072f576200072e62000260565b5b6200073b8254620004f7565b620007488282856200066d565b600060209050601f8311600181146200078057600084156200076b578287015190505b620007778582620006ea565b865550620007e7565b601f19841662000790866200052c565b60005b82811015620007ba5784890151825560018201915060208501945060208101905062000793565b86831015620007da5784890151620007d6601f891682620006ca565b8355505b6001600288020188555050505b505050505050565b61140880620007ff6000396000f3fe608060405234801561001057600080fd5b50600436106100885760003560e01c80639ab24eb01161005b5780639ab24eb0146100ef578063a8311aa81461011f578063f2fde38b1461013d578063fc36e15b1461015957610088565b80632fcd16121461008d5780635df3e271146100ab578063715018a6146100c75780638da5cb5b146100d1575b600080fd5b610095610175565b6040516100a29190610a58565b60405180910390f35b6100c560048036038101906100c09190610bcd565b61017b565b005b6100cf6101ef565b005b6100d9610203565b6040516100e69190610c57565b60405180910390f35b61010960048036038101906101049190610c9e565b61022c565b6040516101169190610e01565b60405180910390f35b61012761035a565b6040516101349190610ee5565b60405180910390f35b61015760048036038101906101529190610c9e565b610455565b005b610173600480360381019061016e9190610bcd565b6104db565b005b60035481565b6101836108a9565b6000604051806040016040528083815260200160008152509050600481908060018154018082558091505060019003906000526020600020906002020160009091909190915060008201518160000190816101de9190611113565b506020820151816001015550505050565b6101f76108a9565b6102016000610930565b565b60008060009054906101000a900473ffffffffffffffffffffffffffffffffffffffff16905090565b6102346109fc565b600260008373ffffffffffffffffffffffffffffffffffffffff1673ffffffffffffffffffffffffffffffffffffffff1681526020019081526020016000206040518060600160405290816000820160405180604001604052908160008201805461029e90610f36565b80601f01602080910402602001604051908101604052809291908181526020018280546102ca90610f36565b80156103175780601f106102ec57610100808354040283529160200191610317565b820191906000526020600020905b8154815290600101906020018083116102fa57829003601f168201915b5050505050815260200160018201548152505081526020016002820160009054906101000a900460ff161515151581526020016003820154815250509050919050565b60606004805480602002602001604051908101604052809291908181526020016000905b8282101561044c57838290600052602060002090600202016040518060400160405290816000820180546103b190610f36565b80601f01602080910402602001604051908101604052809291908181526020018280546103dd90610f36565b801561042a5780601f106103ff5761010080835404028352916020019161042a565b820191906000526020600020905b81548152906001019060200180831161040d57829003601f168201915b505050505081526020016001820154815250508152602001906001019061037e565b50505050905090565b61045d6108a9565b600073ffffffffffffffffffffffffffffffffffffffff168173ffffffffffffffffffffffffffffffffffffffff16036104cf5760006040517f1e4fbdf70000000000000000000000000000000000000000000000000000000081526004016104c69190610c57565b60405180910390fd5b6104d881610930565b50565b60018060009054906101000a900473ffffffffffffffffffffffffffffffffffffffff1673ffffffffffffffffffffffffffffffffffffffff166370a08231336040518263ffffffff1660e01b81526004016105379190610c57565b602060405180830381865afa158015610554573d6000803e3d6000fd5b505050506040513d601f19601f820116820180604052508101906105789190611211565b10156105b0576040517fd70a47b000000000000000000000000000000000000000000000000000000000815260040160405180910390fd5b600260003373ffffffffffffffffffffffffffffffffffffffff1673ffffffffffffffffffffffffffffffffffffffff16815260200190815260200160002060020160009054906101000a900460ff1615610637576040517fdfd9cfc900000000000000000000000000000000000000000000000000000000815260040160405180910390fd5b60005b600480549050811015610873578180519060200120600482815481106106635761066261123e565b5b90600052602060002090600202016000016040516106819190611310565b604051809103902003610866576001600482815481106106a4576106a361123e565b5b906000526020600020906002020160010160008282546106c49190611356565b925050819055506040518060600160405280600483815481106106ea576106e961123e565b5b906000526020600020906002020160405180604001604052908160008201805461071390610f36565b80601f016020809104026020016040519081016040528092919081815260200182805461073f90610f36565b801561078c5780601f106107615761010080835404028352916020019161078c565b820191906000526020600020905b81548152906001019060200180831161076f57829003601f168201915b50505050508152602001600182015481525050815260200160011515815260200142815250600260003373ffffffffffffffffffffffffffffffffffffffff1673ffffffffffffffffffffffffffffffffffffffff168152602001908152602001600020600082015181600001600082015181600001908161080e9190611113565b5060208201518160010155505060208201518160020160006101000a81548160ff021916908315150217905550604082015181600301559050506003600081548092919061085b9061138a565b9190505550506108a6565b808060010191505061063a565b506040517f7ca3497d00000000000000000000000000000000000000000000000000000000815260040160405180910390fd5b50565b6108b16109f4565b73ffffffffffffffffffffffffffffffffffffffff166108cf610203565b73ffffffffffffffffffffffffffffffffffffffff161461092e576108f26109f4565b6040517f118cdaa70000000000000000000000000000000000000000000000000000000081526004016109259190610c57565b60405180910390fd5b565b60008060009054906101000a900473ffffffffffffffffffffffffffffffffffffffff169050816000806101000a81548173ffffffffffffffffffffffffffffffffffffffff021916908373ffffffffffffffffffffffffffffffffffffffff1602179055508173ffffffffffffffffffffffffffffffffffffffff168173ffffffffffffffffffffffffffffffffffffffff167f8be0079c531659141344cd1fd0a4f28419497f9722a3daafe3b4186f6b6457e060405160405180910390a35050565b600033905090565b6040518060600160405280610a0f610a25565b8152602001600015158152602001600081525090565b604051806040016040528060608152602001600081525090565b6000819050919050565b610a5281610a3f565b82525050565b6000602082019050610a6d6000830184610a49565b92915050565b6000604051905090565b600080fd5b600080fd5b600080fd5b600080fd5b6000601f19601f8301169050919050565b7f4e487b7100000000000000000000000000000000000000000000000000000000600052604160045260246000fd5b610ada82610a91565b810181811067ffffffffffffffff82111715610af957610af8610aa2565b5b80604052505050565b6000610b0c610a73565b9050610b188282610ad1565b919050565b600067ffffffffffffffff821115610b3857610b37610aa2565b5b610b4182610a91565b9050602081019050919050565b82818337600083830152505050565b6000610b70610b6b84610b1d565b610b02565b905082815260208101848484011115610b8c57610b8b610a8c565b5b610b97848285610b4e565b509392505050565b600082601f830112610bb457610bb3610a87565b5b8135610bc4848260208601610b5d565b91505092915050565b600060208284031215610be357610be2610a7d565b5b600082013567ffffffffffffffff811115610c0157610c00610a82565b5b610c0d84828501610b9f565b91505092915050565b600073ffffffffffffffffffffffffffffffffffffffff82169050919050565b6000610c4182610c16565b9050919050565b610c5181610c36565b82525050565b6000602082019050610c6c6000830184610c48565b92915050565b610c7b81610c36565b8114610c8657600080fd5b50565b600081359050610c9881610c72565b92915050565b600060208284031215610cb457610cb3610a7d565b5b6000610cc284828501610c89565b91505092915050565b600081519050919050565b600082825260208201905092915050565b60005b83811015610d05578082015181840152602081019050610cea565b60008484015250505050565b6000610d1c82610ccb565b610d268185610cd6565b9350610d36818560208601610ce7565b610d3f81610a91565b840191505092915050565b610d5381610a3f565b82525050565b60006040830160008301518482036000860152610d768282610d11565b9150506020830151610d8b6020860182610d4a565b508091505092915050565b60008115159050919050565b610dab81610d96565b82525050565b60006060830160008301518482036000860152610dce8282610d59565b9150506020830151610de36020860182610da2565b506040830151610df66040860182610d4a565b508091505092915050565b60006020820190508181036000830152610e1b8184610db1565b905092915050565b600081519050919050565b600082825260208201905092915050565b6000819050602082019050919050565b6000610e5b8383610d59565b905092915050565b6000602082019050919050565b6000610e7b82610e23565b610e858185610e2e565b935083602082028501610e9785610e3f565b8060005b85811015610ed35784840389528151610eb48582610e4f565b9450610ebf83610e63565b925060208a01995050600181019050610e9b565b50829750879550505050505092915050565b60006020820190508181036000830152610eff8184610e70565b905092915050565b7f4e487b7100000000000000000000000000000000000000000000000000000000600052602260045260246000fd5b60006002820490506001821680610f4e57607f821691505b602082108103610f6157610f60610f07565b5b50919050565b60008190508160005260206000209050919050565b60006020601f8301049050919050565b600082821b905092915050565b600060088302610fc97fffffffffffffffffffffffffffffffffffffffffffffffffffffffffffffffff82610f8c565b610fd38683610f8c565b95508019841693508086168417925050509392505050565b6000819050919050565b600061101061100b61100684610a3f565b610feb565b610a3f565b9050919050565b6000819050919050565b61102a83610ff5565b61103e61103682611017565b848454610f99565b825550505050565b600090565b611053611046565b61105e818484611021565b505050565b5b818110156110825761107760008261104b565b600181019050611064565b5050565b601f8211156110c75761109881610f67565b6110a184610f7c565b810160208510156110b0578190505b6110c46110bc85610f7c565b830182611063565b50505b505050565b600082821c905092915050565b60006110ea600019846008026110cc565b1980831691505092915050565b600061110383836110d9565b9150826002028217905092915050565b61111c82610ccb565b67ffffffffffffffff81111561113557611134610aa2565b5b61113f8254610f36565b61114a828285611086565b600060209050601f83116001811461117d576000841561116b578287015190505b61117585826110f7565b8655506111dd565b601f19841661118b86610f67565b60005b828110156111b35784890151825560018201915060208501945060208101905061118e565b868310156111d057848901516111cc601f8916826110d9565b8355505b6001600288020188555050505b505050505050565b6111ee81610a3f565b81146111f957600080fd5b50565b60008151905061120b816111e5565b92915050565b60006020828403121561122757611226610a7d565b5b6000611235848285016111fc565b91505092915050565b7f4e487b7100000000000000000000000000000000000000000000000000000000600052603260045260246000fd5b600081905092915050565b60008190508160005260206000209050919050565b6000815461129a81610f36565b6112a4818661126d565b945060018216600081146112bf57600181146112d457611307565b60ff1983168652811515820286019350611307565b6112dd85611278565b60005b838110156112ff578154818901526001820191506020810190506112e0565b838801955050505b50505092915050565b600061131c828461128d565b915081905092915050565b7f4e487b7100000000000000000000000000000000000000000000000000000000600052601160045260246000fd5b600061136182610a3f565b915061136c83610a3f565b925082820190508082111561138457611383611327565b5b92915050565b600061139582610a3f565b91507fffffffffffffffffffffffffffffffffffffffffffffffffffffffffffffffff82036113c7576113c6611327565b5b60018201905091905056fea2646970667358221220571c76251baa6be1422f0d1045f07063dd38ef3e08dc0d94d5e51346054b992964736f6c63430008180033",
  "linkReferences": {},
  "deployedLinkReferences": {}
}