{
  "_format": "hh-sol-artifact-1",
  "contractName": "PartyVote",
  "sourceName": "contracts/PartyVote.sol",
  "abi": [
    {
      "inputs": [
        {
          "internalType": "string",
          "name": "name",
          "type": "string"
        },
        {
          "internalType": "address",
          "name": "tokenAddress",
          "type": "address"
        }
      ],
      "stateMutability": "nonpayable",
      "type": "constructor"
    },
    {
      "inputs": [
        {
          "internalType": "address",
          "name": "owner",
          "type": "address"
        }
      ],
      "name": "OwnableInvalidOwner",
      "type": "error"
    },
    {
      "inputs": [
        {
          "internalType": "address",
          "name": "account",
          "type": "address"
        }
      ],
      "name": "OwnableUnauthorizedAccount",
      "type": "error"
    },
    {
      "inputs": [],
      "name": "vote__doneVoting",
      "type": "error"
    },
    {
      "inputs": [],
      "name": "vote__noParty",
      "type": "error"
    },
    {
      "inputs": [],
      "name": "vote__noToken",
      "type": "error"
    },
    {
      "anonymous": false,
      "inputs": [
        {
          "indexed": true,
          "internalType": "address",
          "name": "previousOwner",
          "type": "address"
        },
        {
          "indexed": true,
          "internalType": "address",
          "name": "newOwner",
          "type": "address"
        }
      ],
      "name": "OwnershipTransferred",
      "type": "event"
    },
    {
      "anonymous": false,
      "inputs": [
        {
          "indexed": false,
          "internalType": "string",
          "name": "name",
          "type": "string"
        },
        {
          "indexed": false,
          "internalType": "uint256",
          "name": "index",
          "type": "uint256"
        }
      ],
      "name": "PartyAdded",
      "type": "event"
    },
    {
      "anonymous": false,
      "inputs": [
        {
          "indexed": true,
          "internalType": "address",
          "name": "voter",
          "type": "address"
        },
        {
          "indexed": false,
          "internalType": "string",
          "name": "party",
          "type": "string"
        },
        {
          "indexed": false,
          "internalType": "uint256",
          "name": "time",
          "type": "uint256"
        }
      ],
      "name": "Voted",
      "type": "event"
    },
    {
      "inputs": [
        {
          "internalType": "string",
          "name": "name",
          "type": "string"
        }
      ],
      "name": "addParty",
      "outputs": [],
      "stateMutability": "nonpayable",
      "type": "function"
    },
    {
      "inputs": [],
      "name": "getParties",
      "outputs": [
        {
          "components": [
            {
              "internalType": "string",
              "name": "name",
              "type": "string"
            },
            {
              "internalType": "uint256",
              "name": "count",
              "type": "uint256"
            }
          ],
          "internalType": "struct PartyVote.Party[]",
          "name": "",
          "type": "tuple[]"
        }
      ],
      "stateMutability": "view",
      "type": "function"
    },
    {
      "inputs": [
        {
          "internalType": "address",
          "name": "voter",
          "type": "address"
        }
      ],
      "name": "getVotes",
      "outputs": [
        {
          "internalType": "string",
          "name": "name",
          "type": "string"
        },
        {
          "internalType": "bool",
          "name": "hasVoted",
          "type": "bool"
        },
        {
          "internalType": "uint256",
          "name": "time",
          "type": "uint256"
        }
      ],
      "stateMutability": "view",
      "type": "function"
    },
    {
      "inputs": [],
      "name": "owner",
      "outputs": [
        {
          "internalType": "address",
          "name": "",
          "type": "address"
        }
      ],
      "stateMutability": "view",
      "type": "function"
    },
    {
      "inputs": [],
      "name": "renounceOwnership",
      "outputs": [],
      "stateMutability": "nonpayable",
      "type": "function"
    },
    {
      "inputs": [],
      "name": "totalVoteUsed",
      "outputs": [
        {
          "internalType": "uint256",
          "name": "",
          "type": "uint256"
        }
      ],
      "stateMutability": "view",
      "type": "function"
    },
    {
      "inputs": [
        {
          "internalType": "address",
          "name": "newOwner",
          "type": "address"
        }
      ],
      "name": "transferOwnership",
      "outputs": [],
      "stateMutability": "nonpayable",
      "type": "function"
    },
    {
      "inputs": [
        {
          "internalType": "string",
          "name": "name",
          "type": "string"
        }
      ],
      "name": "vote",
      "outputs": [],
      "stateMutability": "nonpayable",
      "type": "function"
    }
  ],
  "bytecode": "0x60806040523480156200001157600080fd5b5060405162000fd738038062000fd78339810160408190526200003491620001d7565b33806200005b57604051631e4fbdf760e01b81526000600482015260240160405180910390fd5b62000066816200012e565b50600180546001600160a01b0383166001600160a01b0319909116178155604080518082019091528381526000602082018190526004805493840181559052805190916002027f8a35acfbc15ff81a39ae7d344fd709f28e8600b4aa8c65c6b64bfe7fe36bd19b01908190620000dd908262000335565b506020820151816001015550507f9f1ad4d7838109ae47198c66d274691e3fd72992445628823446cac30e5b26038260006040516200011e92919062000401565b60405180910390a150506200043e565b600080546001600160a01b038381166001600160a01b0319831681178455604051919092169283917f8be0079c531659141344cd1fd0a4f28419497f9722a3daafe3b4186f6b6457e09190a35050565b634e487b7160e01b600052604160045260246000fd5b60005b83811015620001b157818101518382015260200162000197565b50506000910152565b80516001600160a01b0381168114620001d257600080fd5b919050565b60008060408385031215620001eb57600080fd5b82516001600160401b03808211156200020357600080fd5b818501915085601f8301126200021857600080fd5b8151818111156200022d576200022d6200017e565b604051601f8201601f19908116603f011681019083821181831017156200025857620002586200017e565b816040528281528860208487010111156200027257600080fd5b6200028583602083016020880162000194565b80965050505050506200029b60208401620001ba565b90509250929050565b600181811c90821680620002b957607f821691505b602082108103620002da57634e487b7160e01b600052602260045260246000fd5b50919050565b601f82111562000330576000816000526020600020601f850160051c810160208610156200030b5750805b601f850160051c820191505b818110156200032c5782815560010162000317565b5050505b505050565b81516001600160401b038111156200035157620003516200017e565b6200036981620003628454620002a4565b84620002e0565b602080601f831160018114620003a15760008415620003885750858301515b600019600386901b1c1916600185901b1785556200032c565b600085815260208120601f198616915b82811015620003d257888601518255948401946001909101908401620003b1565b5085821015620003f15787850151600019600388901b60f8161c191681555b5050505050600190811b01905550565b60408152600083518060408401526200042281606085016020880162000194565b602083019390935250601f91909101601f191601606001919050565b610b89806200044e6000396000f3fe608060405234801561001057600080fd5b50600436106100885760003560e01c80639ab24eb01161005b5780639ab24eb0146100e1578063a8311aa814610103578063f2fde38b14610118578063fc36e15b1461012b57600080fd5b80632fcd16121461008d5780635df3e271146100a9578063715018a6146100be5780638da5cb5b146100c6575b600080fd5b61009660035481565b6040519081526020015b60405180910390f35b6100bc6100b7366004610722565b61013e565b005b6100bc6101f6565b6000546040516001600160a01b0390911681526020016100a0565b6100f46100ef3660046107d3565b61020a565b6040516100a093929190610849565b61010b61033d565b6040516100a0919061086e565b6100bc6101263660046107d3565b610438565b6100bc610139366004610722565b61047b565b61014661068f565b60408051808201909152818152600060208201819052600480546001810182559152815160029091027f8a35acfbc15ff81a39ae7d344fd709f28e8600b4aa8c65c6b64bfe7fe36bd19b0190819061019e9082610971565b50602091909101516001918201556004547f9f1ad4d7838109ae47198c66d274691e3fd72992445628823446cac30e5b26039183916101dd9190610a47565b6040516101eb929190610a60565b60405180910390a150565b6101fe61068f565b61020860006106bc565b565b6001600160a01b038116600090815260026020818152604080842081516060818101845282548252600183015460ff1615159482018590529190940154918401919091529291829161027357505060408051602081019091526000808252909250905080610336565b600481600001518154811061028a5761028a610a82565b9060005260206000209060020201600001600182604001518280546102ae906108e6565b80601f01602080910402602001604051908101604052809291908181526020018280546102da906108e6565b80156103275780601f106102fc57610100808354040283529160200191610327565b820191906000526020600020905b81548152906001019060200180831161030a57829003601f168201915b50505050509250935093509350505b9193909250565b60606004805480602002602001604051908101604052809291908181526020016000905b8282101561042f5783829060005260206000209060020201604051806040016040529081600082018054610394906108e6565b80601f01602080910402602001604051908101604052809291908181526020018280546103c0906108e6565b801561040d5780601f106103e25761010080835404028352916020019161040d565b820191906000526020600020905b8154815290600101906020018083116103f057829003601f168201915b5050505050815260200160018201548152505081526020019060010190610361565b50505050905090565b61044061068f565b6001600160a01b03811661046f57604051631e4fbdf760e01b8152600060048201526024015b60405180910390fd5b610478816106bc565b50565b600180546040516370a0823160e01b81523360048201526001600160a01b03909116906370a0823190602401602060405180830381865afa1580156104c4573d6000803e3d6000fd5b505050506040513d601f19601f820116820180604052508101906104e89190610a98565b101561050757604051630d70a47b60e41b815260040160405180910390fd5b3360009081526002602052604090206001015460ff161561053b5760405163dfd9cfc960e01b815260040160405180910390fd5b60005b6004548110156106755781805190602001206004828154811061056357610563610a82565b90600052602060002090600202016000016040516105819190610ab1565b60405180910390200361066d576001600482815481106105a3576105a3610a82565b906000526020600020906002020160010160008282546105c39190610b27565b9091555050604080516060810182528281526001602080830182815242848601908152336000908152600293849052958620945185559051928401805460ff1916931515939093179092559051910155600380549161062183610b3a565b9190505550336001600160a01b03167f35b4034b2bbe10bb07b21969c986794a6276a531bb155886a9f883bb5c9dc8e88342604051610661929190610a60565b60405180910390a25050565b60010161053e565b50604051637ca3497d60e01b815260040160405180910390fd5b6000546001600160a01b031633146102085760405163118cdaa760e01b8152336004820152602401610466565b600080546001600160a01b038381166001600160a01b0319831681178455604051919092169283917f8be0079c531659141344cd1fd0a4f28419497f9722a3daafe3b4186f6b6457e09190a35050565b634e487b7160e01b600052604160045260246000fd5b60006020828403121561073457600080fd5b813567ffffffffffffffff8082111561074c57600080fd5b818401915084601f83011261076057600080fd5b8135818111156107725761077261070c565b604051601f8201601f19908116603f0116810190838211818310171561079a5761079a61070c565b816040528281528760208487010111156107b357600080fd5b826020860160208301376000928101602001929092525095945050505050565b6000602082840312156107e557600080fd5b81356001600160a01b03811681146107fc57600080fd5b9392505050565b6000815180845260005b818110156108295760208185018101518683018201520161080d565b506000602082860101526020601f19601f83011685010191505092915050565b60608152600061085c6060830186610803565b93151560208301525060400152919050565b600060208083018184528085518083526040925060408601915060408160051b87010184880160005b838110156108d857888303603f19018552815180518785526108bb88860182610803565b918901519489019490945294870194925090860190600101610897565b509098975050505050505050565b600181811c908216806108fa57607f821691505b60208210810361091a57634e487b7160e01b600052602260045260246000fd5b50919050565b601f82111561096c576000816000526020600020601f850160051c810160208610156109495750805b601f850160051c820191505b8181101561096857828155600101610955565b5050505b505050565b815167ffffffffffffffff81111561098b5761098b61070c565b61099f8161099984546108e6565b84610920565b602080601f8311600181146109d457600084156109bc5750858301515b600019600386901b1c1916600185901b178555610968565b600085815260208120601f198616915b82811015610a03578886015182559484019460019091019084016109e4565b5085821015610a215787850151600019600388901b60f8161c191681555b5050505050600190811b01905550565b634e487b7160e01b600052601160045260246000fd5b81810381811115610a5a57610a5a610a31565b92915050565b604081526000610a736040830185610803565b90508260208301529392505050565b634e487b7160e01b600052603260045260246000fd5b600060208284031215610aaa57600080fd5b5051919050565b6000808354610abf816108e6565b60018281168015610ad75760018114610aec57610b1b565b60ff1984168752821515830287019450610b1b565b8760005260208060002060005b85811015610b125781548a820152908401908201610af9565b50505082870194505b50929695505050505050565b80820180821115610a5a57610a5a610a31565b600060018201610b4c57610b4c610a31565b506001019056fea2646970667358221220f3ada52af05712fe137e94296df2a3e3d5e3663a4deeb6d1d5d294d7ff617bc664736f6c63430008180033",
  "linkReferences": {},
  "deployedLinkReferences": {}
}