{
  "_format": "hh-sol-artifact-1",
  "contractName": "Votoken",
  "sourceName": "contracts/Votoken.sol",
  "abi": [
    {
      "inputs": [],
      "stateMutability": "nonpayable",
      "type": "constructor"
    },
    {
      "inputs": [
        {
          "internalType": "address",
          "name": "spender",
          "type": "address"
        },
        {
          "internalType": "uint256",
          "name": "allowance",
          "type": "uint256"
        },
        {
          "internalType": "uint256",
          "name": "needed",
          "type": "uint256"
        }
      ],
      "name": "ERC20InsufficientAllowance",
      "type": "error"
    },
    {
      "inputs": [
        {
          "internalType": "address",
          "name": "sender",
          "type": "address"
        },
        {
          "internalType": "uint256",
          "name": "balance",
          "type": "uint256"
        },
        {
          "internalType": "uint256",
          "name": "needed",
          "type": "uint256"
        }
      ],
      "name": "ERC20InsufficientBalance",
      "type": "error"
    },
    {
      "inputs": [
        {
          "internalType": "address",
          "name": "approver",
          "type": "address"
        }
      ],
      "name": "ERC20InvalidApprover",
      "type": "error"
    },
    {
      "inputs": [
        {
          "internalType": "address",
          "name": "receiver",
          "type": "address"
        }
      ],
      "name": "ERC20InvalidReceiver",
      "type": "error"
    },
    {
      "inputs": [
        {
          "internalType": "address",
          "name": "sender",
          "type": "address"
        }
      ],
      "name": "ERC20InvalidSender",
      "type": "error"
    },
    {
      "inputs": [
        {
          "internalType": "address",
          "name": "spender",
          "type": "address"
        }
      ],
      "name": "ERC20InvalidSpender",
      "type": "error"
    },
    {
      "inputs": [],
      "name": "mint__gotToken",
      "type": "error"
    },
    {
      "anonymous": false,
      "inputs": [
        {
          "indexed": true,
          "internalType": "address",
          "name": "owner",
          "type": "address"
        },
        {
          "indexed": true,
          "internalType": "address",
          "name": "spender",
          "type": "address"
        },
        {
          "indexed": false,
          "internalType": "uint256",
          "name": "value",
          "type": "uint256"
        }
      ],
      "name": "Approval",
      "type": "event"
    },
    {
      "anonymous": false,
      "inputs": [
        {
          "indexed": true,
          "internalType": "address",
          "name": "from",
          "type": "address"
        },
        {
          "indexed": true,
          "internalType": "address",
          "name": "to",
          "type": "address"
        },
        {
          "indexed": false,
          "internalType": "uint256",
          "name": "value",
          "type": "uint256"
        }
      ],
      "name": "Transfer",
      "type": "event"
    },
    {
      "inputs": [
        {
          "internalType": "address",
          "name": "owner",
          "type": "address"
        },
        {
          "internalType": "address",
          "name": "spender",
          "type": "address"
        }
      ],
      "name": "allowance",
      "outputs": [
        {
          "internalType": "uint256",
          "name": "",
          "type": "uint256"
        }
      ],
      "stateMutability": "view",
      "type": "function"
    },
    {
      "inputs": [
        {
          "internalType": "address",
          "name": "spender",
          "type": "address"
        },
        {
          "internalType": "uint256",
          "name": "amount",
          "type": "uint256"
        }
      ],
      "name": "approve",
      "outputs": [
        {
          "internalType": "bool",
          "name": "",
          "type": "bool"
        }
      ],
      "stateMutability": "pure",
      "type": "function"
    },
    {
      "inputs": [
        {
          "internalType": "address",
          "name": "account",
          "type": "address"
        }
      ],
      "name": "balanceOf",
      "outputs": [
        {
          "internalType": "uint256",
          "name": "",
          "type": "uint256"
        }
      ],
      "stateMutability": "view",
      "type": "function"
    },
    {
      "inputs": [],
      "name": "decimals",
      "outputs": [
        {
          "internalType": "uint8",
          "name": "",
          "type": "uint8"
        }
      ],
      "stateMutability": "view",
      "type": "function"
    },
    {
      "inputs": [],
      "name": "mint",
      "outputs": [],
      "stateMutability": "nonpayable",
      "type": "function"
    },
    {
      "inputs": [],
      "name": "name",
      "outputs": [
        {
          "internalType": "string",
          "name": "",
          "type": "string"
        }
      ],
      "stateMutability": "view",
      "type": "function"
    },
    {
      "inputs": [],
      "name": "symbol",
      "outputs": [
        {
          "internalType": "string",
          "name": "",
          "type": "string"
        }
      ],
      "stateMutability": "view",
      "type": "function"
    },
    {
      "inputs": [],
      "name": "totalSupply",
      "outputs": [
        {
          "internalType": "uint256",
          "name": "",
          "type": "uint256"
        }
      ],
      "stateMutability": "view",
      "type": "function"
    },
    {
      "inputs": [
        {
          "internalType": "address",
          "name": "recipient",
          "type": "address"
        },
        {
          "internalType": "uint256",
          "name": "amount",
          "type": "uint256"
        }
      ],
      "name": "transfer",
      "outputs": [
        {
          "internalType": "bool",
          "name": "",
          "type": "bool"
        }
      ],
      "stateMutability": "pure",
      "type": "function"
    },
    {
      "inputs": [
        {
          "internalType": "address",
          "name": "sender",
          "type": "address"
        },
        {
          "internalType": "address",
          "name": "recipient",
          "type": "address"
        },
        {
          "internalType": "uint256",
          "name": "amount",
          "type": "uint256"
        }
      ],
      "name": "transferFrom",
      "outputs": [
        {
          "internalType": "bool",
          "name": "",
          "type": "bool"
        }
      ],
      "stateMutability": "pure",
      "type": "function"
    }
  ],
  "bytecode": "0x60a06040523480156200001157600080fd5b506040518060400160405280600781526020017f566f746f6b656e000000000000000000000000000000000000000000000000008152506040518060400160405280600381526020017f56544b000000000000000000000000000000000000000000000000000000000081525081600390816200008f919062000358565b508060049081620000a1919062000358565b5050503373ffffffffffffffffffffffffffffffffffffffff1660808173ffffffffffffffffffffffffffffffffffffffff16815250506200043f565b600081519050919050565b7f4e487b7100000000000000000000000000000000000000000000000000000000600052604160045260246000fd5b7f4e487b7100000000000000000000000000000000000000000000000000000000600052602260045260246000fd5b600060028204905060018216806200016057607f821691505b60208210810362000176576200017562000118565b5b50919050565b60008190508160005260206000209050919050565b60006020601f8301049050919050565b600082821b905092915050565b600060088302620001e07fffffffffffffffffffffffffffffffffffffffffffffffffffffffffffffffff82620001a1565b620001ec8683620001a1565b95508019841693508086168417925050509392505050565b6000819050919050565b6000819050919050565b600062000239620002336200022d8462000204565b6200020e565b62000204565b9050919050565b6000819050919050565b620002558362000218565b6200026d620002648262000240565b848454620001ae565b825550505050565b600090565b6200028462000275565b620002918184846200024a565b505050565b5b81811015620002b957620002ad6000826200027a565b60018101905062000297565b5050565b601f8211156200030857620002d2816200017c565b620002dd8462000191565b81016020851015620002ed578190505b62000305620002fc8562000191565b83018262000296565b50505b505050565b600082821c905092915050565b60006200032d600019846008026200030d565b1980831691505092915050565b60006200034883836200031a565b9150826002028217905092915050565b6200036382620000de565b67ffffffffffffffff8111156200037f576200037e620000e9565b5b6200038b825462000147565b62000398828285620002bd565b600060209050601f831160018114620003d05760008415620003bb578287015190505b620003c785826200033a565b86555062000437565b601f198416620003e0866200017c565b60005b828110156200040a57848901518255600182019150602085019450602081019050620003e3565b868310156200042a578489015162000426601f8916826200031a565b8355505b6001600288020188555050505b505050505050565b608051610dd16200045860003960005050610dd16000f3fe608060405234801561001057600080fd5b506004361061009e5760003560e01c8063313ce56711610066578063313ce5671461014957806370a082311461016757806395d89b4114610197578063a9059cbb146101b5578063dd62ed3e146101e55761009e565b806306fdde03146100a3578063095ea7b3146100c15780631249c58b146100f157806318160ddd146100fb57806323b872dd14610119575b600080fd5b6100ab610215565b6040516100b89190610927565b60405180910390f35b6100db60048036038101906100d691906109e2565b6102a7565b6040516100e89190610a3d565b60405180910390f35b6100f96102f3565b005b6101036103e3565b6040516101109190610a67565b60405180910390f35b610133600480360381019061012e9190610a82565b6103ed565b6040516101409190610a3d565b60405180910390f35b61015161043a565b60405161015e9190610af1565b60405180910390f35b610181600480360381019061017c9190610b0c565b610443565b60405161018e9190610a67565b60405180910390f35b61019f61048b565b6040516101ac9190610927565b60405180910390f35b6101cf60048036038101906101ca91906109e2565b61051d565b6040516101dc9190610a3d565b60405180910390f35b6101ff60048036038101906101fa9190610b39565b610569565b60405161020c9190610a67565b60405180910390f35b60606003805461022490610ba8565b80601f016020809104026020016040519081016040528092919081815260200182805461025090610ba8565b801561029d5780601f106102725761010080835404028352916020019161029d565b820191906000526020600020905b81548152906001019060200180831161028057829003601f168201915b5050505050905090565b6000806102e9576040517f08c379a00000000000000000000000000000000000000000000000000000000081526004016102e090610c4b565b60405180910390fd5b6000905092915050565b600560003373ffffffffffffffffffffffffffffffffffffffff1673ffffffffffffffffffffffffffffffffffffffff16815260200190815260200160002060009054906101000a900460ff1615610377576040517fca1a96a000000000000000000000000000000000000000000000000000000000815260040160405180910390fd5b61038933670de0b6b3a76400006105f0565b6001600560003373ffffffffffffffffffffffffffffffffffffffff1673ffffffffffffffffffffffffffffffffffffffff16815260200190815260200160002060006101000a81548160ff021916908315150217905550565b6000600254905090565b60008061042f576040517f08c379a000000000000000000000000000000000000000000000000000000000815260040161042690610cb7565b60405180910390fd5b600090509392505050565b60006012905090565b60008060008373ffffffffffffffffffffffffffffffffffffffff1673ffffffffffffffffffffffffffffffffffffffff168152602001908152602001600020549050919050565b60606004805461049a90610ba8565b80601f01602080910402602001604051908101604052809291908181526020018280546104c690610ba8565b80156105135780601f106104e857610100808354040283529160200191610513565b820191906000526020600020905b8154815290600101906020018083116104f657829003601f168201915b5050505050905090565b60008061055f576040517f08c379a000000000000000000000000000000000000000000000000000000000815260040161055690610cb7565b60405180910390fd5b6000905092915050565b6000600160008473ffffffffffffffffffffffffffffffffffffffff1673ffffffffffffffffffffffffffffffffffffffff16815260200190815260200160002060008373ffffffffffffffffffffffffffffffffffffffff1673ffffffffffffffffffffffffffffffffffffffff16815260200190815260200160002054905092915050565b600073ffffffffffffffffffffffffffffffffffffffff168273ffffffffffffffffffffffffffffffffffffffff16036106625760006040517fec442f050000000000000000000000000000000000000000000000000000000081526004016106599190610ce6565b60405180910390fd5b61066e60008383610672565b5050565b600073ffffffffffffffffffffffffffffffffffffffff168373ffffffffffffffffffffffffffffffffffffffff16036106c45780600260008282546106b89190610d30565b92505081905550610797565b60008060008573ffffffffffffffffffffffffffffffffffffffff1673ffffffffffffffffffffffffffffffffffffffff16815260200190815260200160002054905081811015610750578381836040517fe450d38c00000000000000000000000000000000000000000000000000000000815260040161074793929190610d64565b60405180910390fd5b8181036000808673ffffffffffffffffffffffffffffffffffffffff1673ffffffffffffffffffffffffffffffffffffffff16815260200190815260200160002081905550505b600073ffffffffffffffffffffffffffffffffffffffff168273ffffffffffffffffffffffffffffffffffffffff16036107e0578060026000828254039250508190555061082d565b806000808473ffffffffffffffffffffffffffffffffffffffff1673ffffffffffffffffffffffffffffffffffffffff168152602001908152602001600020600082825401925050819055505b8173ffffffffffffffffffffffffffffffffffffffff168373ffffffffffffffffffffffffffffffffffffffff167fddf252ad1be2c89b69c2b068fc378daa952ba7f163c4a11628f55a4df523b3ef8360405161088a9190610a67565b60405180910390a3505050565b600081519050919050565b600082825260208201905092915050565b60005b838110156108d15780820151818401526020810190506108b6565b60008484015250505050565b6000601f19601f8301169050919050565b60006108f982610897565b61090381856108a2565b93506109138185602086016108b3565b61091c816108dd565b840191505092915050565b6000602082019050818103600083015261094181846108ee565b905092915050565b600080fd5b600073ffffffffffffffffffffffffffffffffffffffff82169050919050565b60006109798261094e565b9050919050565b6109898161096e565b811461099457600080fd5b50565b6000813590506109a681610980565b92915050565b6000819050919050565b6109bf816109ac565b81146109ca57600080fd5b50565b6000813590506109dc816109b6565b92915050565b600080604083850312156109f9576109f8610949565b5b6000610a0785828601610997565b9250506020610a18858286016109cd565b9150509250929050565b60008115159050919050565b610a3781610a22565b82525050565b6000602082019050610a526000830184610a2e565b92915050565b610a61816109ac565b82525050565b6000602082019050610a7c6000830184610a58565b92915050565b600080600060608486031215610a9b57610a9a610949565b5b6000610aa986828701610997565b9350506020610aba86828701610997565b9250506040610acb868287016109cd565b9150509250925092565b600060ff82169050919050565b610aeb81610ad5565b82525050565b6000602082019050610b066000830184610ae2565b92915050565b600060208284031215610b2257610b21610949565b5b6000610b3084828501610997565b91505092915050565b60008060408385031215610b5057610b4f610949565b5b6000610b5e85828601610997565b9250506020610b6f85828601610997565b9150509250929050565b7f4e487b7100000000000000000000000000000000000000000000000000000000600052602260045260246000fd5b60006002820490506001821680610bc057607f821691505b602082108103610bd357610bd2610b79565b5b50919050565b7f417070726f76616c206973206e6f7420616c6c6f77656420666f72207468697360008201527f20746f6b656e0000000000000000000000000000000000000000000000000000602082015250565b6000610c356026836108a2565b9150610c4082610bd9565b604082019050919050565b60006020820190508181036000830152610c6481610c28565b9050919050565b7f5468697320746f6b656e2063616e6e6f74206265207472616e73666572726564600082015250565b6000610ca16020836108a2565b9150610cac82610c6b565b602082019050919050565b60006020820190508181036000830152610cd081610c94565b9050919050565b610ce08161096e565b82525050565b6000602082019050610cfb6000830184610cd7565b92915050565b7f4e487b7100000000000000000000000000000000000000000000000000000000600052601160045260246000fd5b6000610d3b826109ac565b9150610d46836109ac565b9250828201905080821115610d5e57610d5d610d01565b5b92915050565b6000606082019050610d796000830186610cd7565b610d866020830185610a58565b610d936040830184610a58565b94935050505056fea2646970667358221220da5a39e01924b0118a25dd03ce2f6c1b1ccc0bdb319d8f2789fe508dc4df4f0664736f6c63430008180033",
  "linkReferences": {},
  "deployedLinkReferences": {}
}